S00D0000426C696E6B2E7372656327
S11300000C942A000C9434000C9434000C943400A6
S11300100C9434000C9434000C9434000C9434008C
S11300200C9434000C9434000C9434000C9434007C
S11300300C9434000C9434000C9434000C9434006C
S11300400C9434000C9434000C9434000C9434005C
S11300500C94340011241FBECFE5D8E0DEBFCDBF21
S11300600E9450000C9455000C94000018BA2FEF15
S113007089E698E1215080409040E1F700C00000FB
S113008081E088BB2FEF89E698E1215080409040C1
S1130090E1F700C00000089581E087BB88BB0895A4
S11100A00E944C000E943600FDCFF894FFCF62
S9030000FC
